:020000040800F2
:1000000078060020A1010008A9010008AB01000842
:10001000AD010008AF010008B101000800000000B8
:10002000000000000000000000000000B301000814
:10003000B501000800000000B7010008C51900085C
:10004000BB010008BB010008BB010008BB010008A0
:10005000BB010008BB010008BB010008BB01000890
:10006000BB010008BB010008BB010008BB01000880
:10007000BB010008BB010008BB010008BB01000870
:10008000BB010008BB010008BB010008BB01000860
:10009000BB010008BB010008BB010008BB01000850
:1000A000BB010008BB010008BB010008BB01000840
:1000B000BB010008BB010008BB010008BB01000830
:1000C000BB010008BB010008BB010008BB01000820
:1000D000BB010008BB010008BB010008BB01000810
:1000E000BB010008BB010008BB01000800F002F8DA
:1000F00000F047F80AA090E8000C82448344AAF17B
:100100000107DA4501D100F03CF8AFF2090EBAE878
:100110000F0013F0010F18BFFB1A43F0010318473B
:10012000043C0000243C0000103A24BF78C878C189
:10013000FAD8520724BF30C830C144BF04680C60ED
:10014000704700000023002400250026103A28BF35
:1001500078C1FBD8520728BF30C148BF0B60704739
:10016000662903F0D284002070471FB500F00CFB15
:1001700004000020002102F0B3FBE0601FBD10B5B9
:1001800010BD00F001FC1146FFF7EFFF01F0F8FD94
:1001900000F01FFC03B4FFF7F2FF03BC00F062FCA9
:1001A0000948804709480047FEE7FEE7FEE7FEE70B
:1001B000FEE7FEE7FEE7FEE7FEE7FEE70448054947
:1001C000054A064B70470000811A0008ED00000840
:1001D00078000020780600207802002078020020B5
:1001E0000FB41CB5074B06AA7B44694600900598DE
:1001F00000F0B1FA0020694600F0C0FA1CBC5DF8BE
:1002000014FB0000910500002DE9F0474FF0000AB3
:1002100089460446C0F820A02046E16888470028A7
:1002200076D0252806D0D4E901219047206A401CC9
:100230002062F1E7E168204600258847C4F81CA049
:1002400006460027C4F818A02A2E09D0304601F02F
:100250008FFD38B304EB8708303EC8F8186019E00A
:1002600059F8041B204604EB87029161E168884736
:10027000012F064618D1E069002820DA25F0200574
:100280001DE0D8F8180000EB800006EB4000303885
:10029000C8F818002046E1688847064601F068FD66
:1002A0000028EED1012F0AD02E2E08D12046E16879
:1002B00088477F1C0646022F45F02005C4DBA06955
:1002C000002803DA404245F00105A061E80701D0AB
:1002D00025F01005B6B1A6F14100192802D8203644
:1002E00045F400654A463146204625604D46FFF7F5
:1002F00037FF58B1012806D0ED1D25F0070000F1A9
:10030000080989E704E005F1040985E730468AE732
:10031000206ABDE8F08770477047704710B500F05D
:1003200037FA006810BD10B5044600F031FA0460D9
:1003300010BD70472DE9FF4F0C461E464FF0FF37AA
:100340008BB0D2E90001DDF860800A908A46C1F3E3
:100350000A5505B93D46002108464FF00000BAF1A4
:10036000000F00F4400005DA00EB80004FF440017C
:1003700001EA50004FEA9059B9F1010F00DDB9468A
:100380000A9850EA4A000ED044F61050A5F2FF3504
:1003900045432F14B8F1000F1ED07542291E1EDDF3
:1003A000C9F100021CE0B8F1010F4FF0000001D0CC
:1003B000302103E0F24305E02154401CB042FBDB56
:1003C00030460022002121540B99C1F80880C1E970
:1003D00000200FB0BDE8F08FBD1B6D1CDEE74A4664
:1003E00000DA694206A800F05DFA06AB93E8070060
:1003F00003AB83E8070050460A9900F03AFB8DE80A
:100400000700A0F500501F3800900398002D09DD6B
:1004100042F21F014A46084403A90390684600F0CF
:1004200099FD08E0A0F500504A461F3803A9039043
:10043000684600F0A3FD8DE807000004000C03D01F
:100440004FF0FF30410800E01046B8F1000F03D034
:100450000022009215461EE0751E05D400F09CF99E
:10046000303262556D1EF9D5B3460122084302D0E1
:1004700000227F1C04E02078302801D100227F1E5A
:10048000002A099786D01DE0112D07DA00F084F9C3
:10049000303262556D1C50EA0102F5D1084302D09A
:1004A0000098C8B10EE00021681E05E0235C625C84
:1004B00063542254401E491C8142F7DBAB46A81B03
:1004C000401E0990002004F80B000B98099AC0F810
:1004D0000880C0E9002B7CE711264FF0000859E79F
:1004E0002DE9F04F88460446D21D22F0070191B055
:1004F000D1E90001CDE90A0101F0B0FB02460B98F9
:10050000C00F01D02D2007E02068810701D52B20E6
:1005100002E0202101EAC000032A099001D0072A45
:1005200005DB03464146204600F07CF90BE12078CC
:10053000800601D5E06900E00620B8F1650F81462C
:1005400006D0B8F1660F18D0B8F1670F70D131E05E
:100550000020B9F1110F009001DB112301E009F136
:1005600001030AAA01A90CA8FFF7E4FEDDE90C705B
:10057000002609F10105834647E001204B46009023
:100580004FF000470AAA01A90CA8FFF7D3FEDDE946
:100590000DB00C995D46002610B909F101000D1847
:1005A000B9EB050003D4C0F1FF3609F10105A5EB55
:1005B00009002BE0B9F1010F01DA4FF00109002029
:1005C000B9F1110F0090484601DD112300E0034608
:1005D0000AAA01A90CA8FFF7ADFEDDE90C704D4693
:1005E00000268346207800070AD4AB4500DA5D4632
:1005F00001A8012D04DD411911F8011C302907D093
:100600004F4502DA17F1040F04DA012082460FE0A9
:100610006D1EEEE7002F02DCED1B3E4403E0781C6C
:10062000A84200DD7D1CB81B00F1010A4FF0004715
:100630002078000703D4AA4501DB4FF0FF3A0021E0
:10064000B7F1004F0DF143088DF8431024D002207C
:100650002B23002F01DA7F422D230A21021EA0F155
:10066000010000DC5FB197FBF1FC97FBF1F201FBAD
:100670001C7C17460CF1300C08F801CDEEE7A8F110
:10068000010003702188090501D5452100E065219D
:10069000A0F1010800F8011C09980FA9A1EB0807B7
:1006A000FF1D00B10120411901EBEA70A169384436
:1006B000081A401EA0612078C00602D42046AFF37D
:1006C0000080099828B1D4E901219047206A401C94
:1006D00020622078C00622D52046AFF300801EE0BD
:1006E000002E04DBB34502DD01A8805D00E0302070
:1006F000D4E901219047206A401C2062761CAAF1AF
:1007000001005FEA000A0AD100F03EF8C068016803
:10071000405CD4E901219047206A401C2062281ED9
:10072000A5F10105DCDC07E0D4E9012118F8010B93
:100730009047206A401C2062381EA7F10107F3DCB5
:100740002046AFF30080032011B043E601694A1C44
:1007500002610878704700B58FB0CDE90131002102
:10076000059105497944CDE9031011466846FFF724
:100770004BFD0FB000BD0000E5FFFFFF0A6802F867
:10078000010B0A60704700000048704738000020E5
:10079000004870471800002030B5B0F10A024FEA57
:1007A000900E71F100034EEA817EB0EB0E0061EB1A
:1007B00091014FEA101E4EEA017E10EB0E0041EB54
:1007C00011114FEA102E4EEA016E10EB0E0041EBB4
:1007D00011214FEA104E4EEA014E10EB0E0041EB94
:1007E0001141401841F100014FEAD00040EA417048
:1007F0004FEAD10110EB80054FEA810444EA90747E
:1008000044EB01046D1944EB0404521BA3414FF067
:10081000000348BF0A3200D530BD401C41F1000141
:1008200030BD00002DE9F0411F4604460326016853
:10083000072A01F4006004DB08B116A505E016A53F
:1008400003E008B115A500E015A521F01000206017
:10085000A069C01EA0610FB1401EA0612046AFF389
:1008600000804FB1D4E9012138469047206A401CEE
:100870002062C01C206206E0206AFAE7D4E9012168
:1008800015F8010B9047761EF8D22046AFF3008092
:10089000BDE8F0814E414E006E616E00494E46004B
:1008A000696E66002DE9F047814616468AB03348E6
:1008B00078440DC88DE80D0030487844801C03ACA6
:1008C0000DC884E80D0041F69B300844372190FBA9
:1008D000F1F290FBF1F5A5F1800501FB12041B3C40
:1008E00002D56442012000E00020DFF890A080469D
:1008F0000027FA44AAF1BE0A0DE0E00709D032460B
:10090000684607EB47010AEB810100F037FB8DE8F1
:10091000070064107F1C002CEFD1184F7F44AC3FC0
:1009200018E0E80714D007EB04100DF1180A90E85E
:100930000E008AE80E00C068F04201D198190890B4
:10094000324606A903A800F019FB03AB83E80700B1
:100950006D10641C002DE4D132466946B8F1000FD9
:1009600003A802D000F0F6FA01E000F007FBC9E9A5
:100970000001C9F808200AB0BDE8F087583400002B
:1009800000487047180000207546FFF7F9FFAE4693
:1009900005006946534620F00700854618B020B58B
:1009A000FFF70CFCBDE820404FF000064FF00007B9
:1009B0004FF000084FF0000B21F00701AC46ACE807
:1009C000C009ACE8C009ACE8C009ACE8C0098D4674
:1009D000704710B50446AFF300802046BDE81040D4
:1009E000FFF7D8BB4FF0013C50F8042B51F8043B03
:1009F0009A4221D1A2EB0C03934313EACC1317D1F3
:100A000050F8042B51F8043B9A4215D1A2EB0C0389
:100A1000934313EACC130BD150F8042B51F8043B49
:100A20009A4209D1A2EB0C03934313EACC13DBD017
:100A30004FF00000704700BFD01A01BAB1FA81F13F
:100A400001F0180122FA01F0CB40C1F12001DBB224
:100A5000C0B2C01A2CFA01F3D11A914311EAC311A2
:100A6000E6D1704701491820ABBEFEE72600020020
:100A700070475FEA400C08BF91F0000F4FEA8C23EB
:100A80004FEAC12243EA51514FEA1C5018BF00F50A
:100A9000F0404FEA300018BF41F000415FEA6C5C63
:100AA00000F02980BCF1FF3F08BF40F08040704754
:100AB000130C06BF12044FF0100C4FF0000C130E75
:100AC00004BF12020CF1080C130F04BF12010CF149
:100AD000040C930F04BF92000CF1020CD30F04BF5F
:100AE00052000CF1010C11464FF00002A0F11F0062
:100AF000A0EB0C00704711F0004F08BF704731F0B9
:100B000000413FF4D5AF0B0C06BF09044FF0100CA9
:100B10004FF0000C0B0E04BF09020CF1080C0B0F78
:100B200004BF09010CF1040C8B0F04BF89000CF108
:100B3000020CCB0F04BF49000CF1010CCCF12003D7
:100B4000A0EB0C0022FA03F302FA0CF241EA0301D3
:100B500000F10100704720F07F4C80EA030023F091
:100B60007F47ACEB070303F57C5300F0004003F133
:100B7000FF032DE980494FEA154B09B44FEA1443AE
:100B800025EA0B4E24EA03480FF2042606EB13274E
:100B900049083E785FEA320203FB0667C7F50007A3
:100BA00007FB06F64FEA54374FEAD64606F102062F
:100BB00007FB066CCCF1005C4FEA1C472CEA074CA3
:100BC00007FB06F40CFB06F504EB15464FEA9616F8
:100BD00034BF00204FF000404FEAD13706FB07FC3E
:100BE0004FEA1C4C0CFB0BF7D21B03FB0CF761EB21
:100BF00007010CFB0EF7B0EB074072EB17420CFB42
:100C000008F734BFA2EB0742B2EB074261EB174192
:100C10004FEA0C444FEA910706FB07FC4FEA1C4CD5
:100C20000CFB0BF7B0EBC74072EB573203FB0CF732
:100C300034BFA2EBC742B2EBC74261EB57310CFBAA
:100C40000EF7B0EBC70072EB57720CFB08F734BF1E
:100C5000A2EBC702B2EBC70261EB5771039F4FEAE9
:100C6000816141EA921104EBCC044FEAD1374FEA9B
:100C7000826206FB07FC42EA90124FEA80604FEA6C
:100C80001C4C0CFB0BF7D21B03FB0CF761EB0701B1
:100C90000CFB0EF7B0EB074072EB17420CFB08F7AA
:100CA00034BFA2EB0742B2EB074261EB17414FEAB8
:100CB0008C554FEA910704EB9C2406FB07FC4FEA96
:100CC0001C4C0CFB0BF7B0EBC74072EB573203FB2D
:100CD0000CF734BFA2EBC742B2EBC74261EB57310E
:100CE0000CFB0EF7B0EBC70072EB57720CFB08F76A
:100CF00034BFA2EBC702B2EBC70261EB577115EB31
:100D00004C254FEA816141EA92114FEA82624FEA33
:100D1000D13742EA901206FB07FC44F100044FEA87
:100D200080604FEA1C4C0CFB0BF7D21B03FB0CF74B
:100D300061EB07010CFB0EF7B0EB074072EB1742BB
:100D40000CFB08F734BFA2EB0742B2EB074261EBA2
:100D5000174115EB1C154FEA813141EA92414FEAE8
:100D6000823242EA90424FEA80304FEA0C7644F1F8
:100D7000000448EA03434EEA0B484FF0000EB2EB82
:100D8000080C71EB030724BF624639464EEB0E0E8A
:100D90004FF0000B0018524149414BEB0B0BB2EBEB
:100DA000080C71EB03077BF1000B24BF6246394648
:100DB0004EEB0E0E4FF0000B0018524149414BEB29
:100DC0000B0BB2EB080C71EB03077BF1000B24BF9C
:100DD000624639464EEB0E0E51EA020718BF46F046
:100DE000010616EB0E7655F1000254F1000103D511
:100DF000BDE88901BDE80088BDE88901BDE800487B
:100E0000B619524141EB0101A3F101037047808003
:100E10007F7E7D7C7B7A7978777676757473727154
:100E200071706F6E6E6D6C6C6B6A6A69686867660C
:100E300066656464636362616160605F5F5E5E5D9E
:100E40005D5C5C5B5B5A5A59595858575756565512
:100E500055555454535352525251515050504F4F74
:100E60004F4E4E4D4D4D4C4C4C4B4B4B4A4A4A49C4
:100E70004949484848474747474646464545454407
:100E80004444444343434342424242414141002B94
:100E900026D4770021D01CB54FEA370703B44FF0B2
:100EA00010004FF010014FF000000FBCBDE81040E3
:100EB0000BF1010BBBF1010F08BF5FEA170722BF5F
:100EC00012F1010211F101014FF0004143F1000361
:100ED00000F0004043EA00007047F9D35708DAE712
:100EE00046EA064613F1400F4FEA16461FDD13F19E
:100EF000200FDFBF16430A46002120335B42C8D0D3
:100F0000C3F1200746EA064602FA07F74FEA1646FB
:100F100046EA0706C3F1200722FA03F201FA07F7AF
:100F200021FA03F14FF0000342EA0702B1E746EA73
:100F3000020646EA06464FEA164646EA0106BCBFE6
:100F400046EA0646360C4FF000034FF000024FF021
:100F500000019EE72DE9C048934630B491E838007F
:100F600007C831EA400C48BF34EA430C03D5FFF709
:100F7000F2FDFFF78CFFF0BCBDE800882DE9C0480A
:100F8000934630B491E8380007C810F0804F08BF8E
:100F900013F0804F03D100F005F8FFF778FFF0BCA5
:100FA000BDE8008820F07F4780EA030023F07F4CF3
:100FB00007EB0C03A3F57C5300F00040A3F1FE0304
:100FC00092F0000F00F0B38095F0000F00F07780F2
:100FD0002DE901494FEA11404FEA144621EA004841
:100FE00000FB06FC24EA064708FB06F607FB08F8A8
:100FF00000FB07F718EB06484CEB164C4FEA124B78
:1010000018EB07484FEA15464CEB174022EA0B4E07
:101010000BFB06FC25EA06470EFB06F607FB0EFE59
:101020000BFB07F71EEB064E4CEB164C4FF0000681
:101030001EEB074E4CEB174B18EB0B0840F1000072
:1010400018EB0E0B58EB000840F100008F1A4FF020
:1010500000013CBFC943661B14BFB5EB040C002163
:101060003CBFC943F61B4FEA17444EEA8E0E27EAEF
:1010700004454FEA1C4704FB07622CEA074C05FBBA
:1010800007F70CFB05F604FB0CFC16EB074642EBDE
:10109000174216EB0C4642EB1C421BEB060658EBC4
:1010A0000202414146EA9E0601D5BDE80189B61912
:1010B000524141EB0101A3F10103BDE801894FEA6F
:1010C00014454FEA114724EA054621EA074C05FB7F
:1010D00007F406FB07F70CFB06F105FB0CFC11EB14
:1010E000074144EB17444FEA124711EB0C4144EB24
:1010F0001C4422EA074C05FB07F206FB07F70CFB32
:1011000006F605FB0CFC16EB074642EB174216EB06
:101110000C4642EB1C456A1854F1000148BF704769
:10112000B619524141EB0101A3F10103704795F05B
:10113000000F37D04FEA11424FEA144721EA024626
:1011400024EA074C02FB07F106FB07F70CFB06F449
:1011500002FB0CFC14EB074441EB17414FEA154727
:1011600014EB0C4441EB1C4125EA074C02FB07F54C
:1011700006FB07F70CFB06F602FB0CFC16EB07461A
:1011800045EB174516EB0C4645EB1C42121951F185
:10119000000148BF7047B619524141EB0101A3F16C
:1011A000010370474FEA14454FEA114724EA054608
:1011B00021EA074C05FB07F106FB07F70CFB06F2DB
:1011C0004FF0000605FB0CFC12EB074241EB174108
:1011D00012EB0C4251EB1C4148BF7047921841EB97
:1011E0000101A3F10103704721B1826842F00102BD
:1011F000826003E0826822F0010282607047000092
:1012000000B585B00121480200F050FB002000909D
:101210008DF8040001208DF805004FF46020029045
:101220000020039001208DF810006946124800F05C
:101230003DF80523012200210F4800F05FF801214D
:101240000D48FFF7D1FF0C4800F0B4F800BF0A4882
:1012500000F022F80028FAD1074800F0BBF800BFE0
:10126000054800F00BF80028FAD10121024800F0EF
:10127000A6F805B000BD0000002401400146002092
:101280008A6802F004020AB1012000E000207047E1
:101290000146C86C80B27047014600208A6802F09F
:1012A00008020AB1012000E00020704730B5024674
:1012B0000020002350680F4C20400D790C6844EA50
:1012C00005242043506090680B4C2040D1E9025423
:1012D0002C434D7944EA450420439060D06A20F4C1
:1012E00070000C7C641EE4B2234340EA0350D062D9
:1012F00030BD0000FFFEF0FFFDF7F1FFF0B5044642
:101300000D4600200021092D11DDE068A5F10A0637
:1013100006EB4607072606FA07F18843A5F10A06F9
:1013200006EB460603FA06F10843E0600CE020698C
:1013300005EB4507072606FA07F1884305EB450646
:1013400003FA06F108432061072A0FDA606B561E84
:1013500006EB86071F2606FA07F18843561E06EBA2
:10136000860605FA06F10843606322E00D2A0FDACB
:10137000206BD61F06EB86071F2606FA07F1884367
:10138000D61F06EB860605FA06F10843206310E037
:10139000E06AA2F10D0606EB86071F2606FA07F1A2
:1013A0008843A2F10D0606EB860605FA06F108430E
:1013B000E062F0BD816841F008018160704721B1B1
:1013C000826842F4A002826003E0826822F4A002F4
:1013D00082607047816841F00401816070470000BD
:1013E00070B50446204602F0CBF90646034902F0E8
:1013F0000FFA0546024902F0CDF870BD0000A0408A
:1014000000F07F4570B588B0054640F2CF261848F9
:1014100090FBF5F0401E84B2ADF81460ADF81840B2
:101420000020ADF81600ADF81A0005A94FF0804075
:1014300000F0C2FB6020ADF804000120ADF806000A
:10144000204604EBD0714910ADF80A100020ADF829
:101450000C0001A94FF0804000F04EFB0821C806A7
:1014600000F09CFB0121880700F03AFB08B070BD3A
:10147000A086010010B500214FF0804000F030FB45
:1014800010BD00002DE9F05F82460C49504602F085
:1014900081F88346584601F0E3FF80464FF0C04292
:1014A000074B00F00BFD06460022064B01F0C8FC7E
:1014B000044601F02BFABDE8F09F000000401C46F6
:1014C000666602C00000594070B5044600212046FF
:1014D00002F022F901D1074870BD0749204602F009
:1014E00094FA0646214602F055F80546034902F0F3
:1014F0008FF9F1E7002474490000A04000401C4629
:1015000070B500F06BFA14480068144AB0FBF2F1B1
:10151000B1F1807F00D31DE021F07F40401E4FF0ED
:10152000E022506150170F22002807DA13071D0E22
:101530000B4B00F00F04241F1D5503E013071C0E76
:10154000084B1C5400BF00204FF0E02290610720A0
:10155000106100BF70BD00000400002040420F0079
:1015600018ED00E000E400E000B5024603E04FF4AF
:101570007A7000F005F8101EA2F10102F7D100BD4B
:101580000349086000BF024909680029FBD1704780
:101590000000002008B501210C2000F087F94FF46D
:1015A0007060ADF8000010208DF8030003208DF866
:1015B00002006946054800F00DF84FF46040ADF8B0
:1015C00000006946024800F005F808BD0008014027
:1015D000000C01402DE9F0410246002500260020C4
:1015E00000230024002791F803C00CF00F0591F8A8
:1015F00003C00CF0100CBCF1000F03D091F802C036
:101600004CEA050591F800C0BCF1000F31D0146818
:1016100000202BE04FF0010C0CFA00F3B1F800C0F1
:101620000CEA03069E4220D183004FF00F0C0CFA07
:1016300003F7BC4305FA03FC4CEA040491F803C029
:10164000BCF1280F06D14FF0010C0CFA00FCC2F8D7
:1016500014C00AE091F803C0BCF1480F05D14FF067
:10166000010C0CFA00FCC2F810C0401C0828D1D3B1
:101670001460B1F800C0BCF1FF0F34DD54680020E5
:101680002EE000F1080C4FF0010808FA0CF3B1F855
:1016900000C00CEA03069E4221D183004FF00F0CDC
:1016A0000CFA03F7BC4305FA03FC4CEA040491F876
:1016B00003C0BCF1280F05D100F1080C08FA0CF8A2
:1016C000C2F8148091F803C0BCF1480F07D100F1B3
:1016D000080C4FF0010808FA0CF8C2F81080401C02
:1016E0000828CED35460BDE8F081416170470161A4
:1016F00070470AB1016100E04161704710B50120F7
:1017000000F090F80220FFF72FFF10BD10B54FF446
:1017100000410748FFF7EBFF0120FFF725FF4FF4DB
:1017200000410348FFF7E1FF0120FFF71DFF10BD57
:10173000000C014070B504460D4615B904F1800057
:1017400001E004F1C000C6B2304600F06BF870BD95
:1017500010B5002000F044F81420FFF705FF032027
:1017600000F03EF8FFF7D2FFFFF7D0FFFFF7CEFF04
:10177000022000F035F8FFF7C9FF282000F052F8EA
:101780000C2000F04FF8062000F04CF8FFF7B6FFF1
:1017900010BD000010B504464FF400510948FFF792
:1017A000A6FF4FF480410748FFF79FFF201100F08C
:1017B00017F8FFF7ABFF04F00F0000F011F8FFF788
:1017C000A5FF10BD000C014010B5044603E014F85D
:1017D000010BFFF7DFFF20780028F8D110BD0000D3
:1017E00010B5044604F001024FF480710C48FFF775
:1017F00080FFC4F340024FF400710948FFF779FFFE
:10180000C4F380024FF480610548FFF772FFC4F310
:10181000C0024FF400610248FFF76BFF10BD0000EB
:101820000008014010B504464FF400510948FFF785
:101830005CFF4FF480410748FFF757FF2011FFF787
:10184000CFFFFFF763FF04F00F00FFF7C9FFFFF7BB
:101850005DFF10BD000C014008B50121042000F01F
:1018600025F80121084600F011F80220ADF800002B
:1018700018208DF8030003208DF802006946024805
:10188000FFF7A8FE08BD00000008014029B1064A84
:10189000D2690243044BDA6104E0034AD26982430D
:1018A000014BDA61704700000010024029B1064A7E
:1018B00092690243044B9A6104E0034A92698243AD
:1018C000014B9A61704700000010024010B50248B9
:1018D000FFF7DEFC10BD00000024014010B500F051
:1018E00001F810BD0CB5002001900090334800684D
:1018F00040F480303149086000BF3048006800F48F
:10190000003000900198401C0190009818B901988F
:10191000B0F5A06FF1D12948006800F4003010B193
:101920000120009001E0002000900098012843D1A0
:101930002348006840F0100021490860084600680C
:1019400020F0030008600846006840F002000860CC
:101950001A48406819494860084640684860084687
:10196000406840F4806048600846406820F47C107D
:1019700048600846406840F4E8104860084600683F
:1019800040F08070086000BF0C48006800F00070F4
:101990000028F9D00948406820F003000749486052
:1019A0000846406840F00200486000BF03484068B5
:1019B00000F00C000828F9D10CBD00000010024016
:1019C000002002400448006820B103480068401E1F
:1019D00001490860704700000000002010B5002198
:1019E00000200022214B5B6803F00C0121B1042987
:1019F00006D0082928D107E01D4B1E4C236027E0A4
:101A00001B4B1C4C236023E0184B5B6803F47010E5
:101A1000164B5B6803F48032022303EB904022B93B
:101A2000154B4343134C23600DE0104B5B6803F4EC
:101A3000003323B1104B43430E4C236003E00C4BA7
:101A400043430C4C236003E0094B0A4C236000BF66
:101A500000BF064B5B68C3F30313084CE15C054B06
:101A60001B68CB40034C236010BD000000100240F7
:101A700000127A000400002000093D000800002048
:101A800010B51348006840F001001149086008468D
:101A90004068104908400E494860084600680E49F1
:101AA00008400B4908600846006820F48020086060
:101AB0000846406820F4FE0048604FF41F0088602C
:101AC000FFF70CFF4FF000600449086010BD0000F4
:101AD000001002400000FFF8FFFFF6FE08ED00E0F6
:101AE00021B1028842F00102028004E002884FF630
:101AF000FE731A400280704770B500240022002354
:101B0000058C4FF6EF7635400584028C8388048B74
:101B100048F6FF752C404FF6FF452C400D884FF6D8
:101B2000FF7606EA05252C434FF6DF752A400D891E
:101B300006EA05152A434D8806EA05152A43154D80
:101B4000A84202D0144DA8421DD14FF67F752A40FD
:101B50004D894FF6FF7606EA05152A434FF6BF7505
:101B60002A408D8806EA05152A434FF6FF352B409B
:101B70004FF2FF752B408D8906EA85052B43CD89F1
:101B800006EA85052B4383800483CD88058702847C
:101B900070BD0000002C0140003401400A460021C5
:101BA000018B4FF2FF7319404FF6FF7303EA0223D4
:101BB0001943018370470000002202881D4B9842A0
:101BC0000ED01D4B98420BD0B0F1804F08D01B4B6C
:101BD000984205D01A4B984202D01A4B984204D131
:101BE0004FF68F731A404B881A43174B984207D011
:101BF000164B984204D04FF6FF431A40CB881A4345
:101C000002808B8883850B8803850A4B98420BD012
:101C1000094B984208D00E4B984205D00D4B984284
:101C200002D00D4B984201D10B7A038601238382A7
:101C300070470000002C01400034014000040040C7
:101C400000080040000C004000100040001400405C
:101C5000004001400044014000480140490050EA72
:101C6000C12018BF04204A0D18BF40F0010040F207
:101C7000FF72B2EB515F08BF40F00200012808BFBD
:101C8000052070472DE9F0414F1E00EBC7010446C7
:101C9000D1E9000115461E4637F006020DD02A464E
:101CA000334601F0CDF87F1E04EBC703D3E90023D0
:101CB00000F05EFE37F00602F1D1022F25D0042F8E
:101CC00013D0062F18BFBDE8F0812A46334601F035
:101CD000B7F8D4E90A2300F04BFE2A46334601F058
:101CE000AFF8D4E9082300F043FE2A46334601F05A
:101CF000A7F8D4E9062300F03BFE2A46334601F05C
:101D00009FF8D4E9042300F033FE2A46334601F05D
:101D100097F8D4E9022300F02BFE2A46334601F05F
:101D20008FF8D4E90023BDE8F04100F021BE0000A7
:101D3000002213461046014900F0D6BE0000F03FD5
:101D400000F016BE002213461046114600F0CCBE2D
:101D500040F2013200204FF0E04101F00ABF0000E4
:101D6000024A0020110701F004BF000001FDFFFF3F
:101D700030380A2801D20120704700207047000047
:101D80001FB5FFF7BDFBFFF705FCFFF739FAFFF7BB
:101D9000DFFCFFF761FD74E0FFF798FD0646304673
:101DA000FFF71EFB07463846FFF78EFB804640468E
:101DB000FFF768FB81463349484601F0F5FD1ED226
:101DC000FFF79CFC00210846FFF7B4FC2EA0FFF7AC
:101DD000FBFC40F2DC50FFF715FB01210020FFF770
:101DE000A9FC484601F03CFB044622460B462AA1CA
:101DF0006846FEF7F5F96846FFF7E6FC3DE02A493C
:101E0000484601F0D1FD1CD2FFF734FBFFF776FC0A
:101E100000210846FFF78EFC24A0FFF7D5FC012126
:101E20000020FFF787FC484601F01AFB04462246D3
:101E30000B4619A16846FEF7D3F96846FFF7C4FCC4
:101E40001BE0FFF717FBFFF759FC00210846FFF7DF
:101E500071FC18A0FFF7B8FC01210020FFF76AFC15
:101E6000484601F0FDFA044622460B460AA16846A0
:101E7000FEF7B6F96846FFF7A7FC4FF47A70FFF754
:101E800073FB89E7000048434741532044455445CC
:101E900043544544210000004761733A20252E3207
:101EA000662070706D0000000000C8424341555428
:101EB000494F4E0053414645000000002DE9F04DCA
:101EC0001D460C4698B0174621F0004123F0004310
:101ED000002814BF4FF0010C4FF0000C0CEB440C29
:101EE000FE4A0CEB02064FEA620C66452BD33E001D
:101EF00018BF012606EB45061644F94A964222D33E
:101F0000F84A53EA070C02D0944205D148B918B0F8
:101F100000201146BDE8F08D002808BF4FF0000CEE
:101F200001D04FF0010C0CEB440212F5001F0AD84F
:101F3000002F14BF4FF0010C4FF0000C0CEB4502CA
:101F400012F5001F07D918B03A462B462146BDE8C6
:101F5000F04DFFF7F5BE0022DFF88CA3002CB8BFD0
:101F6000534526DADFF884C36345A8BF022220DA8E
:101F7000DFF870C39C451CDCDFF874C30CEB235CFA
:101F8000BCF1140F08DDCCF1340627FA06FC0CFA7C
:101F900006F6BE420DD108E05FB9CCF1140623FA73
:101FA00006FC0CFA06F69E4203D10CF00102C2F1C7
:101FB000020251EA000C19D1002D17DA002C18BFCB
:101FC000022A01D0012A07D00220FEF7ACF918B08E
:101FD000BDE8F04DFFF7ACBE0220FEF7A4F9FFF715
:101FE000A7FE18B081F00041BDE8F08DB7F1000CFC
:101FF0006CD1534525D104F1804212F5801201BF06
:1020000000280020B74918B008BFBDE8F08DB548DA
:10201000884207DC002DA1BF6046294618B0BDE804
:10202000F08D07E0281E05DA80F0004118B0604608
:10203000BDE8F08DAF497944D1E9000118B0BDE8A1
:10204000F08DDFF8A0C2634525D1002D1FDA19B14C
:10205000514512D1D8B909E0002840F0EC82A24ADB
:10206000214618B062F31E01BDE8F08D0020214624
:1020700018B060F31E01BDE8F08D08DA18B02346F1
:10208000BDE8F04D02460020614600F02DBD18B0BD
:102090002146BDE8F08D514518DAB5F1804F0DD0DD
:1020A000A5F1005CBCF1FF5C10D1B4F1000C0DDBBC
:1020B00018B06146BDE8F04D00F0ECBB234618B007
:1020C0000246BDE8F04D194600F0BABE060024F005
:1020D000004C3BD1D9B1514533D1002C06DD002D48
:1020E000A1BF0020514618B0BDE8F08D002C01DDE5
:1020F000002D1BDB002C13DA002D11DB012A4FF021
:10210000000014BF78497C4918B0BDE8F08D022A60
:1021100018BF002C0AD0012A08D1002C06DA0AE0E8
:10212000002CB8BF002D11DA012A04D0002018B00D
:102130000146BDE8F08D18B000204FF00041BDE829
:10214000F08DA1F14050B0F17F601AD0012000EB7A
:10215000E47050EA020421D0624C521E4FF0000B92
:10216000104304BF4FF0000B644C654883427CDD94
:10217000644A654893421FDD884217DB002D25DB4A
:1021800037E0002C00DA4AB1022A0CBF01204FF0E0
:10219000FF3018B0BDE8F04D00F0FEBD0120FEF7A5
:1021A000C2F818B0BDE8F04DFFF7CCBD4D4A8A42E9
:1021B00002DC002D0ADC1CE0814202DA002D18DA74
:1021C00004E0484B994220DD002D12DD0220FEF78D
:1021D000AAF8FFF7BDFD05460E46002253465846B5
:1021E000214600F02DFE18B066F31E012846BDE81A
:1021F000F08D0220FEF797F8FFF7B2FD0A46214660
:1022000018B062F31E01BDE8F08D00223046614631
:1022100001F03CF880460E466FF0010201F0A9FC87
:102220004FF05532394B00F03FFF4246334600F045
:1022300007FE0022364B00F037FF82464246334607
:1022400004911046194600F0FBFD5246049B00F035
:10225000F7FD8A4600904FF0C0422E4B4046314673
:1022600000F0EEFD2C4A2B4B00E027E0CDE9060103
:102270005146009800F0E4FD82460191274A284B20
:102280004046314600F0DCFD5246019B00F0FEFF67
:1022900082460B4602460591DDE9060100F068FB27
:1022A000DDE9062300268846304600F0EFFF52465F
:1022B000059B00F0F9FE024600F07EB90020B1F562
:1022C000801F07DA35223046614601F052FC06468F
:1022D0006FF0340000EB215024E00000FFFF1F00EE
:1022E000FFFF0F000000F03F0000F07F00004043C0
:1022F00001FCFFFF4E1C00000000F0FF0000F0BFDB
:102300000000E0410000F043FFFFEF3F5555D53F8F
:102310000000E03F4715F73FFE822B6544DF5DF884
:102320000BAE543EA0F2FF300190C1F3130040F019
:102330007F6141F040510291FE498842D8BF0020A0
:1023400004DDFD498142C8BF012001DD0D9008E098
:1023500000200D900198401C01900298A0F580107B
:1023600002900299F54878440B910D9900EBC10059
:10237000D0E900230F9330460A920B9900F086FFB4
:10238000CDE90601DDE90A2130460F9B00F0F0FAA5
:1023900002460B460020EA4900F0A6FB05910246E2
:1023A0000B460090DDE9060100F04AFD1490E54877
:1023B0008A464FF0000878440299006812904FF066
:1023C000005040EA61010D980F9B01EB804000F541
:1023D000002109910A9A129800F058FF32460B9B8F
:1023E00000F062FE4246534600F02AFD0646029186
:1023F00040465146099B129A00F022FDDDE9062372
:1024000000F052FE3246029B00F040FF059B009A0E
:1024100000F016FD0091149A049053461046194698
:1024200000F00EFD06460246C7480B460291062103
:102430007844FFF727FCCDE90510029B3246104691
:10244000194600F0FDFCDDE9053200F0F9FC0591CC
:102450000646534640461946149A00F089FA009BF6
:10246000049A00F0EDFC3246059B00F081FACDE9BC
:102470000510424653461046194600F0E1FC002282
:10248000B24B02910A9000F073FADDE9053200F0D8
:102490006FFA0E464246AD4B404600F0F7FE029BF7
:1024A0000A9A00F0F3FEDDE9053200F0FDFD424638
:1024B00002910A9033461046514600F0C1FCCDE926
:1024C00006015346149A02990A9800F0B9FC8A460C
:1024D0000290334642460099049800F0B1FC5346FE
:1024E000029A00F045FA82460B4602460591DDE964
:1024F000060100F03DFADDE9062300208846064685
:1025000000F0C4FE5246059B00F0CEFD82460991C4
:102510004FF060428E4B3046414600F091FC0490F3
:1025200006918C4A8A4B5046099900F089FC8246F4
:102530000291894A894B3046414600F081FC52465F
:10254000029B00F015FA864B7B440D9A03EBC20305
:10255000D3E9002300F00CFA0E900791019800F0E7
:102560001BFC0591DDE9061382460E9A049800F0E3
:10257000FFF97C4A7A440D9B02EBC303D3E90023A5
:102580000093029200F0F4F95246059B00F0F0F936
:102590000026884652463046059B00F077FE009B99
:1025A000029A00F073FE069B049A00F06FFE079BF0
:1025B0000E9A00F079FD024600200B460290384644
:1025C000294600F03DFC824601912B4638461946CB
:1025D000029A00F05BFE3246434600F031FC524660
:1025E000019B00F0C5F907468A4632464346294614
:1025F000029800F025FC05460E463A46534600F088
:10260000B7F9594A8846914221DBA8EB020353EA05
:10261000000210D12A46334600F038FECDE904010D
:10262000524A534B3846514600F0A2F9DDE90423E3
:1026300000F004FD21D20220FDF775FEFFF788FBB4
:102640000A46214618B062F31E01BDE8F08D494BE1
:1026500028F000429A4210D3474A08EB020353EA9B
:1026600000027FF4C6AD2A46334600F00FFE3A461C
:10267000534600F0E3FC7FF6BCAD0022019228F047
:1026800000403E493E4A01EB2051824223DA481C79
:102690004FF4801121FA00F040443A4AC0F30A5145
:1026A0007A44394BA1F2FF31CB4020EA0303C0F357
:1026B000130040F48010C1F11401C8401268019069
:1026C000B8F1000FBCBF404201902846314600F0EF
:1026D000DDFD05460E462A4633463846514600F093
:1026E00047F94FF000084246284B4046059100F05C
:1026F000A7FBCDE90601264A264B4046059900F086
:102700009FFB009102902A4633464046059900F00F
:10271000BDFD3A46534600F0C7FC1F4A1F4B00F070
:102720008FFB009B029A00F023F907468846024679
:102730000B4635E08E9803007AB60B009618000021
:102740000000F03FCE180000FC1700000000084019
:1027500009C7EE3FFD033ADCF5015B14E02F3EBEF6
:10276000D41600009816000000009040FE822B65F1
:102770004715973C00CC904000346F3F01FCFFFFB1
:102780000000E03FE4150000FFFF0F00432EE63F8E
:10279000396CA80C615C20BEEF39FAFE422EE63F90
:1027A000DDE9060100F0E4F8DDE9062305460E4602
:1027B00000F06CFD3A46434600F076FC0F462A4690
:1027C000334600901046194600F03AFB8246024616
:1027D0002E4888460B4605217844FFF753FA5246A7
:1027E000434600F02DFB2A46334600F05DFC804650
:1027F0008A463B4628463146009A00F021FB3B467C
:10280000009A00F0B5F80691009000224FF0804346
:102810004046514600F03AFD0F460C904246534662
:102820002846314600F00CFB3B460C9A00F05CF960
:10283000069B009A00F02AFD2A46334600F026FD4A
:102840000022134B00F030FC054601980E4601EBC8
:1028500000510815002810DC28463146019A01F085
:1028600088F9FFF7FBF9042808BFFFF779FA284633
:102870003146019A01F07DF905460B4618B02A460B
:1028800058462146BDE8F04D00F0DABA8414000045
:102890000000F03F2DE9F04106460F4600F010FC25
:1028A000041E0D4618BF0120284320F00040C0F14F
:1028B0007F6000F1E040C00F0ED0301C18BF012037
:1028C000384320F00040C0F17F6000F1E040C00FCD
:1028D00004BF0120FDF727FD20462946BDE8F08111
:1028E00010B500290AD00878002807D00548784498
:1028F000FEF778F8002801D0002010BD0248784487
:1029000010BD0000561400004E14000021F00042DB
:10291000A2F16052B2F5801F01F0004328BFD2F14E
:102920007F6C0BD95FEA001C43EAC20242EB507095
:1029300018BF704728BF20F001007047B2F5801F14
:10294000BCBF184670474FEA410C1CF5001F02D26D
:10295000084601F024B870B500F01CFB00000089A7
:10296000FFF7F6BF4FF00040A0F580007047000071
:1029700010B591EA030F48BF83F0004300F18E8445
:10298000841A71EB030C05D2121943EB0C03001BE4
:1029900061EB0C01DFF824E14FEA1154A4EB135C66
:1029A0001EEA430F18BF9EEA445F73D023EA0E036A
:1029B000DCF1200E21EA045143F4801332D322FAD1
:1029C0000CFE10EB0E0023FA0CFE41EB0E01CCF1D5
:1029D000200E03FA0EFE10EB0E0051F10001B1F5CE
:1029E000801FCCF1200E32D201EB045112FA0EF20C
:1029F000BDE8104058BF7047401C38BF5FEA420234
:102A000018BF7047002814BF20F0010041F10001F9
:102A10004FEA410313F5001F38BF7047A1F1C041D1
:102A200000F006BB012A43EB0302ACF1200CDCF101
:102A30001F0E32BF4FF0000E23FA0CF310EB030011
:102A400041EB0451B4EB115FD0D0A1EB045101F57F
:102A5000801149085FEA300001EB04510ED350F1B8
:102A6000000038BF12FA0EFE08D1BDE81040C9E7D9
:102A7000401C38BF5FEA4202CAD1C3E7BDE810403C
:102A80004FEA410313F5001F38BF7047A1F1C04161
:102A900000F0CEBA9EEA445F08D011EA5E0FBDE8AE
:102AA000104004BF01F0004100207047BDE8104015
:102AB00070B500F06FFA00BF64FBBE3E0000E0FF9F
:102AC00002494FF0000001F022B800BF0000F87F7B
:102AD000491058BFC1F140415B1058BFC3F140439A
:102AE0008B42EFF3008070472DE9C04130B4DFF82E
:102AF000A0C23CEA111418BF3CEA131400F0EC80A9
:102B000081EA03051CEA111444EAD57418BF1CEAD3
:102B1000131500F0C780A4EB05044FF0004545EA0B
:102B2000C12145EAC32341EA505143EA525304F11B
:102B30007F74994204F500344FEAC0204FEAC22264
:102B400008BF904200F09C804FEA13650FF24016D8
:102B5000765D4FEA134506FB05F7C7F1807706FB64
:102B600007F74FEAD737A7FB03687642C8F58038E6
:102B7000A7FB06CE38BFA8F1010807FB08E64FF017
:102B8000000EA6FB028CE6FB03CEDCF1000CCEF1BE
:102B9000004E38BFAEF1010EA6FB0C584FF00007F7
:102BA0004FF00005E6FB0E87A1FB08C6A0FB07CE91
:102BB00016EB0E0645F10005E1FB076515F1E04E49
:102BC0007EBFA4F580345FEA46066D4116F18007AA
:102BD00045F100054FEA17274FEA066647EA056701
:102BE000A6F1DE46B6F1805F4FEA15251FD93846BB
:102BF00024F0010C05EBC471BCF1FE6F01EB0C116C
:102C000002D8F0BCBDE8008124425CBF01F5801E03
:102C10009EEAC47F02D4F0BCBDE80081244238D4CF
:102C2000F0BCA1F1C041BDE8004100F001BA4FEA9B
:102C3000D22242EA43524FEAD323A7FB02864FEA4D
:102C4000D02040EA415007FB03661EEA0E0F4FEA10
:102C5000D12105FB026658BFA6EB0056B6EB005625
:102C60004FEA520E4EEAC37E18EB0E0E56EB530E91
:102C7000BDD518EB02085E417F1C55F10005B6E793
:102C80004FF480154FF000074FF000064FF000089A
:102C9000ADE7F0BC4FF0000001F1C04101F0004190
:102CA000BDE8008111EA0C1F0CEA131500D00CE0FE
:102CB00013EA0C1F00F025804FF00000F0BC81EA01
:102CC000030101F00041BDE80081F0BCBDE8004116
:102CD00081EA030100F0ACB9F0BCBDE8004170B579
:102CE00000F058F9097EFC3E00F007B881EA0301C4
:102CF0004FF0000001F00041704781EA030100F04D
:102D000097B9F0BCBDE800414FF000002149704781
:102D1000FFFDFBF9F7F5F4F2F0EEEDEBE9E8E6E4A0
:102D2000E3E1E0DEDDDBDAD8D7D5D4D3D1D0CFCD27
:102D3000CCCBCAC8C7C6C5C4C2C1C0BFBEBDBCBB60
:102D4000BAB9B8B7B6B5B4B3B2B1B0AFAEADACAB5B
:102D5000AAA9A8A8A7A6A5A4A3A3A2A1A09F9F9E35
:102D60009D9C9C9B9A9999989797969595949393E7
:102D7000929191908F8F8E8E8D8C8C8B8B8A89897E
:102D80008888878786858584848383828281818001
:102D90000000FF070000F87F10F0004248BF4042EB
:102DA000B0FA80F310FA03F10AD0C3F11D0303F562
:102DB00080634FEA415002EB035202EBD12170478E
:102DC0004FF000007047000051EA030C17D41CF5C7
:102DD000801F58BFBCF5801F00F10680994218BFC4
:102DE000704708BF9042704707D711F5801F58BF42
:102DF00013F5801F19D499427047894270471CF51A
:102E0000801F08D5BCF5801FF7D58B4218BF7047CF
:102E100008BF824270474FF4001C1CEB410F38BFC3
:102E20001CEB430F01D28B42704770B500F0B2F833
:102E3000922449004FF000514FF08053FFF748BEF5
:102E4000DFF848C170B51CEA111E1EBF1CEA13153D
:102E50009EEA0C0F95EA0C0F00F06F8081EA0304E4
:102E600023EA4C134EEAD47E21EA4C1141F480113E
:102E700043F48013AE44A1FB024CA0FB0365AEF10A
:102E80007F7E361955EB0C05A1FB034C4CF100037A
:102E9000A0FB021C16EB0C06654153F1000309422E
:102EA00018BF46F0010613F4007F0BD14FEA03313F
:102EB0004FEA0530340341EA155140EA16506FF0ED
:102EC00003020AE04FEAC3214FEAC520F40241EAB7
:102ED000555140EA56506FF0020202EB2E4201EBD0
:102EE000025585EACE710AD05FEA440C18BF24F07F
:102EF000004450F1000041F1000120EAD47040F29A
:102F0000FE7C624500D270BDA84214BF4FF08044E1
:102F10004FF04044002E08BF0024BEF1806FA8BFD0
:102F2000A1F1C041BDE8704080F282804FF0000006
:102F300001F1C04101F0004170479EEA0C0F0CEA1C
:102F4000131518BF95EA0C0F06D04FF0000081EA68
:102F5000030E0EF0004170BD00F01CF88900013E28
:102F600000F007B800F009B84FEA430C5FEA5C5C78
:102F700008D081EA030100F05BB84FEA410C5FEA38
:102F80005C5CF6D14FF00000014970470000FF077C
:102F90000000F87F0EF1020E2EF0030E5EF8046BB7
:102FA000364205D4012A43EB030515F5001F12D85C
:102FB000012841EB010C1CF5001F0CD80ED14FEA83
:102FC000D17C15F5001F0CEB4C0C0CF1020C08BF6A
:102FD0004CEBD37C04E04FF0080C01E04FEAD37CCB
:102FE0000CEB4C0526FA05F606F00706B6F1040CC4
:102FF00006D20EEB860CBDE870404CF0010C604729
:10300000DFE80CF0090B02024FF000414FF0000026
:10301000A1F5002170BD19461046012851EB0104AD
:1030200018BFD4F5001484BF002001F0004170BD2A
:103030000808A0F500114FEA3101704753EA010C6E
:1030400017D41CF5801F58BFBCF5801F00F1068007
:103050008B4218BF704708BF8242704707D713F5ED
:10306000801F58BF11F5801F19D48B4270479B42B7
:1030700070471CF5801F08D5BCF5801FF7D5994215
:1030800018BF704708BF904270474FF4001C1CEBFC
:10309000430F38BF1CEB410F01D2994270470FB468
:1030A0000CBC03BCFFF7C1BE91EA030F10B581F061
:1030B00000413FF565AC83F0004300F0EFB800003D
:1030C0002DE9F04101F5801CBCF5001FC0F2C38062
:1030D0004FEA115C21EA0C510CF1FD0C41F4801116
:1030E0005FEA5C0C0CF5C07C01D3400049413DA473
:1030F000890241EA905187028E0E0A0CA45D04FBFE
:1031000004F602FB06F6C6F14046A4FB0662F60D85
:1031100046EA422606FB06F4A4FB01235242C3F111
:10312000404338BF5B1EA6FB02420024E6FB03249B
:10313000D20B42EA4446A6FB0623A1FB02E2A3FB14
:1031400007E4A4184FF0000252F10002E3FB014231
:103150006442C2F1404E38BFAEF1010EA6FB04231B
:103160004FF00002E6FB0E32A2FB03464FF00004D4
:10317000B61954F10004E2FB0264A1FB06E6A4FBCD
:1031800007E816EB08064FF0000858F10008E4FBCA
:1031900001687642C8F1405838BFA8F10108A2FB87
:1031A00006E4A3FB08E52D194FF0000454F10004D8
:1031B000E2FB0854A1FB05E6A7FB04E818EB0608B0
:1031C0004FF0000656F10006E1FB048618F12005D9
:1031D00056F10006A809A8F11B08B10908F03F083C
:1031E000B8F10A0F40EA86601CD901EB0C51BDE82A
:1031F000F08100BFFCF5EEE8E2DDD8D3CFCBC7C34A
:10320000C0BDB9B6B4B1AEACA9A7A5A3A19F9D9B03
:103210009A9896959392908F8D8C8B8988878685C6
:1032200084838281A0FB006800FB01F208EB420866
:10323000B8EB872807D5341858EB0104D5D5401CC6
:1032400051F10001D1E7341A78EB0104CDD4401ECE
:1032500071F10001C9E75FEA4C0C5FEA9C5C0DD19B
:1032600005D34FF0000001F00041BDE8F081BDE85A
:10327000F04170B5FFF78EFE6DDBFFBEBDE8F0419B
:103280004FF00000004970470000F87F10B591EA48
:10329000030F48BF83F000433FF572AB841A71EB14
:1032A000030C07D212198CF0004C43EB0C03001BEB
:1032B00061EB0C01DFF8A4E14FEA1154A4EB135CBD
:1032C0001EEA430F18BF9EEA445F00F0B08023EA75
:1032D0006E03524221EA0451C3EB6E0338BF5B1EFA
:1032E000DCF1200E25D322FA0CFE10EB0E0043FA7F
:1032F0000CFE41EB0E01CCF1200E03FA0EFE10EB9A
:103300000E0051F10001CCF1200E29D412FA0EF278
:1033100001EB0451BDE8104058BF7047401C1CBF72
:10332000B2F1004F704700280CBF491C20F001008B
:10333000704712EB020E43EB030218BF4FF0010E71
:103340004EEA4202ACF1200CDCF11E0E54D943FAD5
:103350000CFE10EB0E0051F1FF31CCF11E0ED5D555
:103360000EF1010E12FA0EFE404141EB010101EB9C
:10337000445C5FEA5C5C10D910EBDE7001EB045139
:1033800038BFBEF1004FBDE8104018BF704700289D
:103390000CBF491C20F00100704730D24FEAD42CFA
:1033A00011F5001124F400641BD0B1FA81F20B3A3C
:1033B000A41AA41ED2F12003914030FA03F319435A
:1033C000904001EBCC71002C01EB0451BDE81040A2
:1033D000A8BF704701F1C0414FF0000001F000416B
:1033E0007047B0FA80F310FA03F100D110BDE41A6F
:1033F000173C4805C90AE4E701EB045110BD491028
:1034000001EB0451BDE810404FEA300002E04FF0FC
:10341000000170474A0008BF0042F8D0B2F5001F13
:1034200028BF704701F000414FF0000070479EEA4E
:10343000445F07D011EA5E0FBDE8104004BF0021D1
:1034400000207047BDE8104070B5FFF7A3FD00BF36
:1034500040DFF63E83F00041104670470000E0FF79
:1034600043004FEAD30C4FEA3C0C43401FBF4007D8
:103470000CF1605113F0FE4F70471CF0006F03D148
:1034800000200CF0004170470CF0004343EA5070FC
:1034900010B540EACC0000F03CFA00BF00000092FA
:1034A0004FEA0001FFF7C4BD4FF000414FF00000AC
:1034B000A1F500217047000090EA010F48BF81F09C
:1034C000004100F1B482421A3CBF801A89184FEAC9
:1034D000D0524FF07F4C1CEA410FA2EBD15318BFE2
:1034E0009CEA026F00F03B804FF0004C4CEA002059
:1034F0004CEA012121FA03FC10EB0C0C1ED202F164
:10350000FF325FEA1C2040EBC25038BF70471CF00E
:103510007F0F4FEA400C18BFBCF17F4F38BF704798
:10352000C3F12003994008BF20F00100BCF17F4F98
:1035300038BF7047A0F1C04000F031BA4FEA3C00FC
:10354000000A40EBC25028BF1CF0FF0F4FEA400CAE
:10355000E6D018BFBCF17F4F38BF7047EAE79CEA5E
:10356000026F05D010EA5C0F08BF00F00040704702
:1035700010B500F0CEF900BF64FBBE3E401058BF4E
:10358000C0F14040491058BFC1F140418142EFF3C2
:10359000008070474FF47F0C1CEAD0121EBF1CEA5B
:1035A000D11392EA0C0F93EA0C0F00F0858090EA99
:1035B000010F48BF42F4807240F4000C41F4000057
:1035C0002CF07F4120F07F4000B58142A2EB030246
:1035D0000FF2081CACEB504EC0F100009EF800E06A
:1035E0004FEA4E0E00FB0EFC38BF49004FEA2C1C80
:1035F00002F5FA020CFB0EF34FEACE1E4FEA112C35
:103600004FEAC1210EEB635E42EB22420EFB0CFC43
:103610004FEA1C5300FB03114FEA112C4FEA013112
:103620000EFB0CFC4FEADC4C00FB0C11C14228BF26
:1036300009184CEB03335DF804EB10EB410143EB4D
:10364000C250B2F57C0F38BF704729D512F0F00F89
:103650001CBF00F1C04000F0004070470081828331
:103660008485868788898B8C8D8E8F919293959691
:1036700097999A9C9D9FA0A2A3A5A7A8AAACAEB01B
:10368000B2B3B5B7B9BCBEC0C2C5C7C9CCCED1D420
:10369000D7D9DCDFE2E6E9ECF0F3F7FAFE00000050
:1036A0004FEA400C0CF1807CBCF17E4F28BF704784
:1036B000B0F1C04000F073B990EA010F0CEAD113E9
:1036C00048BF42F48072624538BF634507D213F4A5
:1036D0007F0F16D080EA010000F00040704710B55F
:1036E00000F017F9097EFC3E00F005B880EA010001
:1036F00000F00040704780EA010000F0004000F058
:103700004EB912F47F0F04BF0248704780EA0100EF
:1037100000F045B90000C07F50EA010C00F11380B1
:103720001CF5000F58BFBCF5000F01D4884270474C
:1037300007D710F5000F58BF11F5000F15D48842B8
:103740007047894270471CF5000F04D5BCF5000F87
:10375000F7D5814270474FF0807C1CEB400F38BF9B
:103760001CEB410F01D28142704710B500F0D1F837
:10377000922449004FF000504FF08051FFF7FEBEF9
:10378000B0FA80F310FA03F2C3F19D030AD0D90511
:1037900001EB1220530638BF704700F1010008BF4B
:1037A00020F001007047000050EA010C00F1138086
:1037B0001CF5000F58BFBCF5000F01D488427047BC
:1037C00007D710F5000F58BF11F5000F15D4884228
:1037D0007047894270471CF5000F04D5BCF5000FF7
:1037E000F7D5814270474FF0807C1CEB400F38BF0B
:1037F0001CEB410F01D28142704710B500F089F8EF
:10380000922449004FF000504FF08051FFF7B6BEB0
:103810004FF47F0C1CEAD0121EBF1CEAD11392EAAF
:103820000C0F93EA0C0F00F0478090EA010F48BF9D
:1038300042F480724FF0004C4CEA00204CEA012127
:1038400002EB0302A0FB0113A2F50002002918BF3E
:1038500043F001035B0028BF4FEA330342EB2242EF
:103860005FEA132C4CEBC2502EBFBCEB436FB2F59A
:103870007C0F70474FEA036CBCF1004F08BF20F08B
:103880000100B2F57C0F38BF70470BD582F0FF0204
:1038900012F5803FC8BF704700F1C040D8BF00F0AC
:1038A0000040704700F5000C5FEA4C0C48BF7047C1
:1038B000B0F1C04000F073B890EA010F0CEAD113E8
:1038C00048BF42F48072624538BF634504D280EA43
:1038D000010000F00040704710B500F01AF800BF7A
:1038E0008900013E00F007B800F009B85FEA410C1A
:1038F0005FEA1C6C08D080EA010000F050B85FEA73
:10390000400C5FEA1C6CF6D14FF00040A0F580003F
:1039100070470EF1020E2EF0030E5EF8044B2442A7
:1039200004D44FEA4102B2F17F4F11D84FEA40036D
:10393000B3F17F4F0CD80ED14FEAD07CB2F17F4F5C
:103940000CEB4C0C0CF1020C08BF4CEBD17C04E0EE
:103950004FF0080C01E04FEAD17C0CEB4C0324FA49
:1039600003F404F00704B4F1040C06D20EEB840C4B
:10397000BDE810404CF0010C6047DFE80CF0070890
:1039800002024FF00040A0F5800010BD0846420042
:1039900018BFD2F1807288BF00F0004010BDFF2137
:1039A00041EAD050C005704751EA000C00F1138085
:1039B0001CF5000F58BFBCF5000F01D481427047C1
:1039C00007D711F5000F58BF10F5000F15D481422D
:1039D0007047894270471CF5000F04D5BCF5000FF5
:1039E000F7D5884270474FF0807C1CEB410F38BF01
:1039F0001CEB400F01D28842704780EA010081EA47
:103A0000000180EA0100FFF7F8BE80F0004090EA74
:103A1000010F7FF558AD81F0004100F008B80000BB
:103A200090EA010F48BF81F000413FF54CAD421ACA
:103A300004D882F00042A0EB020011444FEAD052B9
:103A40004FF07F4C1CEA410FA2EBD15318BF9CEA08
:103A5000026F4AD04FF0004C4CEA00204CEA0121A2
:103A600021FA03FCB0EB0C0C0FD412F0FE0F36D091
:103A70005FEA4C001DD5001240EBC25038BF7047C2
:103A80001CF03F0F18BF70470BE0A2F101025FEA84
:103A90001C2040EBC25038BF70471CF07F0F18BF8E
:103AA0007047C3F12003994014BF401E20F001006D
:103AB000704780084FEA122308BF7047B0FA80FCB5
:103AC000A2EB0C02CCF1280C60FA0CF093EA122F56
:103AD00004BF00EBC25070474FEAC3707047130A2F
:103AE0005FEADC1008BF7047F6E79CEA026F04D07B
:103AF00010EA5C0F08BF0020704710B5FFF709FF00
:103B000040DFF63E81F000407047FCF7E9BC0CF066
:103B10000F03092B08BF082000F059800A2B0BD097
:103B2000082B18BF704708BF1CF0400F0AD04FF099
:103B300000004FF0000170471CF0400F18BF4FF01D
:103B4000004070471CF0100F08D020F0704300F0C8
:103B50007F4242EAD3014FEA4370704700F0604071
:103B600021F07F4242EA000201F07F4040EA727099
:103B700070474FF0FF0C4CF4E06C1CEA11531CBF73
:103B80009CEA030C9445C2BFDA4201EB0251704734
:103B9000002B0DD0BCF1000F0FD0002A01F0004126
:103BA000A4BF41F0E04141F07F614FF00000704759
:103BB00001F000414FF00000704750EA01334FF030
:103BC0009B0C18BF4CF0806C7EF47AAF70471CF4ED
:103BD000801F11D01CF4E02F03D06FEACC314900D4
:103BE00070474FF04050EFF3008222F0704242EAFB
:103BF000000282F3008870474FF000007047000019
:103C0000000000000000F03F000000000000F83F4E
:103C100000000000000000000000004003B8E23F88
:103C2000000000000000000006D0CF43EBFD4C3E3A
:103C3000033333333333E33FFFAB6FDBB66DDB3F2F
:103C40004D268F515555D53F01411DA96074D13F77
:103C500065DBC9934A86CD3FEF4E454A287ECA3F71
:103C60003E5555555555C53F93BDBE166CC166BFF3
:103C70002CDE25AF6A56113FF16BD2C541BDBBBEEC
:103C8000D0A4BE726937663E00000000000000004C
:103C900002400000000000A00000000005400000FD
:103CA000000000C8000000000C4000000000409C24
:103CB00000000000194000000020BCBE0000000011
:103CC00034400000BFC91B8E00000004B540000056
:103CD000504BCFD06607E2CF010000006C410000DE
:103CE0003E8251AADFEEA73401000000D942000055
:103CF000DCB5A0E23A301F97FFFFFFFFB44500009C
:103D0000FD25A0C8E9A3C14FFFFFFFFFFF3F000053
:103D10000000008000000000FF3F00000000008065
:103D200000000000603D00080000002018000000B6
:103D300028010008783D00081800002060060000F7
:103D4000440100081C00000043000000F8FFFFFFD2
:103D50000C0000000E0000000F0000002E0000000C
:103D60000000000000A24A04000000000000000063
:083D7000010203040607080923
:04000005080001A14D
:00000001FF
